:100000000C942A000C943F000C943F000C943F0089
:100010000C943F000C943F000C943F000C943F0064
:100020000C943F000C943F000C943F000C943F0054
:100030000C943F000C943F000C943F000C943F0044
:100040000C943F000C943F000C943F000C943F0034
:100050000C943F0011241FBECFE5D8E0DEBFCDBF1A
:1000600010E0A0E6B0E0EEE0F6E002C005900D92F0
:10007000A039B107D9F70E94F8020C9405030C943B
:100080000000982F969596959695482F4770613069
:1000900039F0613008F45AC0623009F0E9C0ACC0F0
:1000A0009130D9F0913030F0923051F1933009F025
:1000B000DFC039C0EAE3F0E0208181E090E002C0D7
:1000C000880F991F4A95E2F7809528232083EBE358
:1000D000F0E02081822380830895E7E3F0E020812F
:1000E00081E090E002C0880F991F4A95E2F7809561
:1000F00028232083E8E3F0E0208182238083089591
:10010000E4E3F0E0208181E090E002C0880F991FD5
:100110004A95E2F7809528232083E5E3F0E02081EB
:10012000822380830895E1E3F0E0208181E090E084
:1001300002C0880F991F4A95E2F7809528232083F3
:10014000E2E3F0E020818223808308959130D9F0AA
:10015000913030F0923051F1933009F089C039C0BC
:10016000EAE3F0E0908121E030E001C0220F4A95FF
:10017000EAF7822F809589238083EBE3F0E080818A
:10018000282B20830895E7E3F0E0908121E030E020
:1001900001C0220F4A95EAF7822F80958923808338
:1001A000E8E3F0E08081282B20830895E4E3F0E089
:1001B000908121E030E001C0220F4A95EAF7822FBA
:1001C000809589238083E5E3F0E08081282B2083DC
:1001D0000895E1E3F0E0908121E030E001C0220FDA
:1001E0004A95EAF7822F809589238083E2E3F0E045
:1001F0008081282B208308959130A1F0913028F040
:100200009230E9F09330A1F527C0EAE3F0E02081D5
:1002100081E090E002C0880F991F4A95E2F7282BF1
:1002200020830895E7E3F0E0208181E090E002C0C0
:10023000880F991F4A95E2F7282B20830895E4E35D
:10024000F0E0208181E090E002C0880F991F4A957C
:10025000E2F7282B20830895E1E3F0E0208181E09C
:1002600090E002C0880F991F4A95E2F7282B20835F
:100270000895382F3770869586958695813031F1AF
:10028000813038F0823009F43EC0833009F074C008
:1002900057C0662369F0EBE3F0E0208181E090E055
:1002A00002C0880F991F3A95E2F7282B2083089502
:1002B000EBE3F0E0208181E090E002C0880F991F1D
:1002C0003A95E2F78095822380830895662369F04A
:1002D000E8E3F0E0208181E090E002C0880F991F00
:1002E0003A95E2F7282B20830895E8E3F0E0208197
:1002F00081E090E002C0880F991F3A95E2F780955F
:10030000822380830895662369F0E5E3F0E020818D
:1003100081E090E002C0880F991F3A95E2F7282B00
:1003200020830895E5E3F0E0208181E090E002C0C1
:10033000880F991F3A95E2F780958223808308956C
:10034000662369F0E2E3F0E0208181E090E002C002
:10035000880F991F3A95E2F7282B20830895E2E34E
:10036000F0E0208181E090E002C0880F991F3A956B
:10037000E2F78095822380830895482F4770869501
:10038000869586958130D1F0813030F0823041F110
:100390008330C1F180E008952BB381E090E0042E1A
:1003A00002C0880F991F0A94E2F730E0822393235A
:1003B00002C0959587954A95E2F7089528B381E0A4
:1003C00090E0042E02C0880F991F0A94E2F730E0F3
:1003D0008223932302C0959587954A95E2F7089565
:1003E00025B381E090E0042E02C0880F991F0A9483
:1003F000E2F730E08223932302C0959587954A95D2
:10040000E2F7089522B381E090E0042E02C0880F45
:10041000991F0A94E2F730E08223932302C0959556
:1004200087954A95E2F708950F931F93CF93DF9333
:10043000C0E0D0E000E710E0F801EC0FFD1F8C2FCA
:1004400060810E9441002196C032D105A9F7DF9159
:10045000CF911F910F910895813049F0813028F09C
:10046000823039F0833049F406C06BBB089568BB15
:10047000089565BB089562BB08951BBA0895FF9265
:100480000F931F93F82E80E060E00E94390100ED89
:1004900017E0C8010197F1F781E06F2D0E942C024F
:1004A00081E061E00E943901C8010197F1F781E024
:1004B00060E00E94390180E797E10197F1F71F9111
:1004C0000F91FF9008950F931F9380E69AEE019786
:1004D000F1F788E30E943F0200ED17E0C8010197A1
:1004E000F1F78CE00E943F02C8010197F1F781E02B
:1004F0000E943F0280EA9FE00197F1F71F910F9160
:100500000895892B29F4862F80580E943F02089570
:10051000862F80540E943F020895FF920F931F93ED
:10052000F82E80E061E00E94390100ED17E0C8017B
:100530000197F1F781E06F2D0E942C0281E061E0CC
:100540000E943901C8010197F1F781E060E00E9443
:10055000390180E797E10197F1F71F910F91FF9023
:100560000895DF93CF9300D000D0CDB7DEB780E100
:10057000898381E18A8382E18B8383E18C83BE015D
:100580006F5F7F4FFB01A1E0B0E0AE014B5F5F4FBB
:100590003E2F361B2081CD01022E02C0880F991FED
:1005A0000A94E2F78270907002C0959587952A951B
:1005B000E2F7882311F4832F04C03196E417F5077E
:1005C00039F70F900F900F900F90CF91DF91089512
:1005D0000E94B102E82F80E69AEE0197F1F7F0E071
:1005E000EE0FFF1FEE0FFF1FE05AFF4F80810895AF
:1005F0000E9414020E94630282E090E063E070E0D7
:0E0600000E94810280E090E00895F894FFCF00
:10060E000102030405060708090A4023252B2D2A9B
:10061E0001010101010101010101010101010101BC
:10062E0002020202000000000101010101010101AC
:00000001FF
