:100000000C942A000C94F9000C9420010C944700E5
:100010000C9447000C9447000C9447000C94470044
:100020000C9447000C9447000C9447000C94470034
:100030000C9447000C9447000C9447000C94470024
:100040000C9447000C9447000C9447000C94470014
:100050000C94470011241FBECFE5D8E0DEBFCDBF12
:1000600010E0A0E6B0E0E6ECF8E002C005900D92EA
:10007000A839B107D9F710E0A8E9B0E001C01D9296
:10008000AE39B107E1F70E944C040C9461040C9462
:100090000000882319F0813061F406C0EFE5F0E03C
:1000A00080818F7780830895EFE5F0E0808180681C
:1000B000808308956130F9F0613030F0623089F169
:1000C000633009F059C043C0882361F0813009F0E2
:1000D00053C0E5E5F0E08081877F808380818B7F5E
:1000E00080830895E5E5F0E080818D7F80838081C5
:1000F0008E7F80830895882359F08130E9F5E5E506
:10010000F0E08081877F8083808184608083089590
:10011000E5E5F0E080818D7F808380818160808350
:100120000895882359F0813039F5E5E5F0E08081C4
:100130008860808380818B7F80830895E5E5F0E08F
:1001400080818260808380818E7F80830895882370
:1001500059F0813089F4E5E5F0E0808188608083A2
:100160008081846080830895E5E5F0E0808182608D
:10017000808380818160808308957894813071F0DC
:10018000813018F0823029F512C0EBE5F0E0808173
:100190008064808380E00E945A000895EBE5F0E0DF
:1001A00080818068808381E00E945A000895EBE599
:1001B000F0E0808180628083623031F4E4E5F0E039
:1001C00080818F7B80830895E4E5F0E08081806406
:1001D0008083089590939900809398000895909358
:1001E0009B0080939A00089590939D0080939C00BB
:1001F00008951F920F920FB60F9211242F933F93E1
:100200004F935F936F937F938F939F93AF93BF931E
:10021000EF93FF93E0919800F09199000995FF9179
:10022000EF91BF91AF919F918F917F916F915F916E
:100230004F913F912F910F900FBE0F901F901895E7
:100240001F920F920FB60F9211242F933F934F934B
:100250005F936F937F938F939F93AF93BF93EF932E
:10026000FF93E0919A00F0919B000995FF91EF9127
:10027000BF91AF919F918F917F916F915F914F91BE
:100280003F912F910F900FBE0F901F901895982FB0
:10029000969596959695482F4770613039F0613064
:1002A00008F45AC0623009F0E9C0ACC09130D9F00E
:1002B000913030F0923051F1933009F0DFC039C005
:1002C000EAE3F0E0208181E090E002C0880F991F0E
:1002D0004A95E2F7809528232083EBE3F0E0208124
:1002E000822380830895E7E3F0E0208181E090E0BD
:1002F00002C0880F991F4A95E2F780952823208332
:10030000E8E3F0E02081822380830895E4E3F0E0D5
:10031000208181E090E002C0880F991F4A95E2F7A2
:10032000809528232083E5E3F0E0208182238083E9
:100330000895E1E3F0E0208181E090E002C0880FC1
:10034000991F4A95E2F7809528232083E2E3F0E0A5
:1003500020818223808308959130D9F0913030F04C
:10036000923051F1933009F089C039C0EAE3F0E0EE
:10037000908121E030E001C0220F4A95EAF7822FF8
:10038000809589238083EBE3F0E08081282B208314
:100390000895E7E3F0E0908121E030E001C0220F12
:1003A0004A95EAF7822F809589238083E8E3F0E07D
:1003B0008081282B20830895E4E3F0E0908121E000
:1003C00030E001C0220F4A95EAF7822F80958923F9
:1003D0008083E5E3F0E08081282B20830895E1E32A
:1003E000F0E0908121E030E001C0220F4A95EAF769
:1003F000822F809589238083E2E3F0E08081282B9F
:10040000208308959130A1F0913028F09230E9F0E6
:100410009330A1F527C0EAE3F0E0208181E090E08D
:1004200002C0880F991F4A95E2F7282B2083089570
:10043000E7E3F0E0208181E090E002C0880F991F9F
:100440004A95E2F7282B20830895E4E3F0E0208129
:1004500081E090E002C0880F991F4A95E2F7282BAF
:1004600020830895E1E3F0E0208181E090E002C084
:10047000880F991F4A95E2F7282B20830895382F7B
:100480003770869586958695813031F1813038F0C8
:10049000823009F43EC0833009F074C057C066232F
:1004A00069F0EBE3F0E0208181E090E002C0880F8A
:1004B000991F3A95E2F7282B20830895EBE3F0E0AB
:1004C000208181E090E002C0880F991F3A95E2F701
:1004D0008095822380830895662369F0E8E3F0E045
:1004E000208181E090E002C0880F991F3A95E2F7E1
:1004F000282B20830895E8E3F0E0208181E090E05C
:1005000002C0880F991F3A95E2F780958223808375
:100510000895662369F0E5E3F0E0208181E090E052
:1005200002C0880F991F3A95E2F7282B208308957F
:10053000E5E3F0E0208181E090E002C0880F991FA0
:100540003A95E2F78095822380830895662369F0C7
:10055000E2E3F0E0208181E090E002C0880F991F83
:100560003A95E2F7282B20830895E2E3F0E020811A
:1005700081E090E002C0880F991F3A95E2F78095DC
:10058000822380830895482F4770869586958695A7
:100590008130D1F0813030F0823041F18330C1F1CF
:1005A00080E008952BB381E090E0042E02C0880F14
:1005B000991F0A94E2F730E08223932302C09595B5
:1005C00087954A95E2F7089528B381E090E0042EDC
:1005D00002C0880F991F0A94E2F730E08223932328
:1005E00002C0959587954A95E2F7089525B381E075
:1005F00090E0042E02C0880F991F0A94E2F730E0C1
:100600008223932302C0959587954A95E2F7089532
:1006100022B381E090E0042E02C0880F991F0A9453
:10062000E2F730E08223932302C0959587954A959F
:10063000E2F708950F931F93CF93DF93C0E0D0E0CC
:1006400000E610E0F801EC0FFD1F8C2F60810E9486
:1006500047012196C032D105A9F7DF91CF911F91B3
:100660000F910895813049F0813028F0823039F0BF
:10067000833049F406C06BBB089568BB089565BB21
:10068000089562BB08951BBA0895FF920F931F93BC
:10069000F82E80E060E00E943F0200ED17E0C80104
:1006A0000197F1F781E06F2D0E94320381E061E054
:1006B0000E943F02C8010197F1F781E060E00E94CB
:1006C0003F0280E797E10197F1F71F910F91FF90AB
:1006D00008950F931F9380E69AEE0197F1F788E350
:1006E0000E94450300ED17E0C8010197F1F78CE087
:1006F0000E944503C8010197F1F781E00E9445037C
:1007000080EA9FE00197F1F71F910F910895892BDF
:1007100029F4862F80580E9445030895862F80541F
:100720000E9445030895FF920F931F93F82E80E0D7
:1007300061E00E943F0200ED17E0C8010197F1F768
:1007400081E06F2D0E94320381E061E00E943F0250
:10075000C8010197F1F781E060E00E943F0280E765
:1007600097E10197F1F71F910F91FF900895EF9294
:10077000FF920F931F930F2EF0E8EF2EF0E0FF2E65
:10078000F02DF70181918F0161E00E943F02F80195
:10079000808161E00E943F02F701828161E00E9456
:1007A0003F02F701838161E00E943F021F910F9198
:1007B000FF90EF9008954F925F926F927F928F9289
:1007C0009F92AF92BF92CF92DF92EF92FF920F93E0
:1007D0001F93CF93DF9300E810E0C8E8D0E0FF2438
:1007E0000F2EF4E84F2EF0E05F2EF02D0F2EF5E8DF
:1007F0006F2EF0E07F2EF02D0F2EF6E88F2EF0E01A
:100800009F2EF02D0F2EF7E8AF2EF0E0BF2EF02D2B
:100810000F2EF4E8CF2EF0E0DF2EF02DF801E0806F
:100820008E2D60E00E943F02F20180810E94C3028F
:10083000882309F4F880F30180810E94C302882391
:1008400009F4F980F40180810E94C302882309F42D
:10085000FA80F50180810E94C302882309F4FB809D
:100860008E2D61E00E943F020F5F1F4F24960C15F2
:100870001D05A1F68F2DDF91CF911F910F91FF9054
:10088000EF90DF90CF90BF90AF909F908F907F9030
:100890006F905F904F9008950E941A0381E00E942C
:1008A000490081E062E00E94BD008CE594E00E9476
:1008B000EF0080E090E008958CE061E00E943F024C
:0608C000FBCFF894FFCF0E
:1008C6000101010101010101010101010202010110
:1008D6000101010101010101010101000101010103
:1008E6001B1A19181C1D1E1F3738392F3435367838
:0808F6003132332D63303D2B3C
:00000001FF
